{
    "contractName": "MROLogbook",
    "abi": [
        {
            "inputs": [
                {
                    "internalType": "uint256",
                    "name": "_someValue",
                    "type": "uint256"
                },
                {
                    "internalType": "address",
                    "name": "_owner",
                    "type": "address"
                }
            ],
            "stateMutability": "nonpayable",
            "type": "constructor"
        },
        {
            "anonymous": false,
            "inputs": [
                {
                    "indexed": true,
                    "internalType": "uint256",
                    "name": "_someValue",
                    "type": "uint256"
                },
                {
                    "indexed": true,
                    "internalType": "address",
                    "name": "_owner",
                    "type": "address"
                }
            ],
            "name": "LogbookDeployed",
            "type": "event"
        },
        {
            "inputs": [],
            "name": "owner",
            "outputs": [
                {
                    "internalType": "address",
                    "name": "",
                    "type": "address"
                }
            ],
            "stateMutability": "view",
            "type": "function"
        },
        {
            "inputs": [],
            "name": "someValue",
            "outputs": [
                {
                    "internalType": "uint256",
                    "name": "",
                    "type": "uint256"
                }
            ],
            "stateMutability": "view",
            "type": "function"
        }
    ],
    "bytecode": "0x608060405234801561000f575f80fd5b5060405161048b38038061048b83398181016040528101906100319190610203565b5f8211610073576040517f08c379a000000000000000000000000000000000000000000000000000000000815260040161006a9061029b565b60405180910390fd5b5f73ffffffffffffffffffffffffffffffffffffffff168173ffffffffffffffffffffffffffffffffffffffff16036100e1576040517f08c379a00000000000000000000000000000000000000000000000000000000081526004016100d890610303565b60405180910390fd5b815f819055508060015f6101000a81548173ffffffffffffffffffffffffffffffffffffffff021916908373ffffffffffffffffffffffffffffffffffffffff1602179055508073ffffffffffffffffffffffffffffffffffffffff16827f13187883b431b8ba48f4b942c2ea008be208517de34dcca3248240c7c1c3ed2860405160405180910390a35050610321565b5f80fd5b5f819050919050565b61018881610176565b8114610192575f80fd5b50565b5f815190506101a38161017f565b92915050565b5f73ffffffffffffffffffffffffffffffffffffffff82169050919050565b5f6101d2826101a9565b9050919050565b6101e2816101c8565b81146101ec575f80fd5b50565b5f815190506101fd816101d9565b92915050565b5f806040838503121561021957610218610172565b5b5f61022685828601610195565b9250506020610237858286016101ef565b9150509250929050565b5f82825260208201905092915050565b7f496e76616c696420696e697469616c2076616c756500000000000000000000005f82015250565b5f610285601583610241565b915061029082610251565b602082019050919050565b5f6020820190508181035f8301526102b281610279565b9050919050565b7f496e76616c6964206f776e6572206164647265737300000000000000000000005f82015250565b5f6102ed601583610241565b91506102f8826102b9565b602082019050919050565b5f6020820190508181035f83015261031a816102e1565b9050919050565b61015d8061032e5f395ff3fe608060405234801561000f575f80fd5b5060043610610034575f3560e01c80634a627e61146100385780638da5cb5b14610056575b5f80fd5b610040610074565b60405161004d91906100b6565b60405180910390f35b61005e610079565b60405161006b919061010e565b60405180910390f35b5f5481565b60015f9054906101000a900473ffffffffffffffffffffffffffffffffffffffff1681565b5f819050919050565b6100b08161009e565b82525050565b5f6020820190506100c95f8301846100a7565b92915050565b5f73ffffffffffffffffffffffffffffffffffffffff82169050919050565b5f6100f8826100cf565b9050919050565b610108816100ee565b82525050565b5f6020820190506101215f8301846100ff565b9291505056fea264697066735822122010b841dc6ebdcf04669e5eefca2ebff342d6696289c15c20fabd40106f8961c864736f6c63430008150033",
    "immutableReferences": {},
    "source": "// SPDX-License-Identifier: MIT\r\npragma solidity ^0.8.21;\r\n\r\ncontract MROLogbook {\r\n    uint256 public someValue;\r\n    address public owner;\r\n\r\n    event LogbookDeployed(uint256 indexed _someValue, address indexed _owner);\r\n\r\n    constructor(uint256 _someValue, address _owner) {\r\n        require(_someValue > 0, \"Invalid initial value\");\r\n        require(_owner != address(0), \"Invalid owner address\");\r\n\r\n        someValue = _someValue;\r\n        owner = _owner;\r\n\r\n        emit LogbookDeployed(_someValue, _owner);\r\n    }\r\n}\r\n",
    "sourcePath": "C:\\Users\\shubh\\mro-logbook\\contracts\\mro.sol",
    "compiler": {
        "name": "solc",
        "version": "0.8.21+commit.d9974bed.Emscripten.clang"
    },
    "schemaVersion": "3.4.16",
    "updatedAt": "2025-03-02T14:16:25.289Z",
    "devdoc": {
        "kind": "dev",
        "methods": {},
        "version": 1
    },
    "userdoc": {
        "kind": "user",
        "methods": {},
        "version": 1
    }
}